:100C4C0057656C636F6D6500427579696E672E2E02
:100C5C002E0052656D6F76696E672E2E2E00496ED2
:100C6C0076616C696400546F74616C20636F756E8F
:100C7C0074203A2000546F74616C20416D74203ADA
:100C8C00200000BC614762616E616E610000000073
:100C9C000A00BC6148696365000000000000001494
:0F0CAC0000BC61496D696C6B0000000000001E08
:050D9E00011C00C10072
:080D0500C286D2877F027E0046
:100D0D00D3EF9400EE6480948040257DFAEDD3946A
:100D1D00007480948040031D80F37DF7EDD3940023
:100D2D007480948040031D80F3EF1F70D31E80D01C
:010D3D002293
:100D63007F01120D8A7F02120D8A7F0C120D8A7F7A
:090D730038120D8A7F80020D8AFE
:0A0D8A008FA0C285120D05C287225A
:0A0D94008FA0D285120D05C2872240
:100D3E008B418A428943AB41AA42A94312095B60A7
:100D4E00130543E5437002054214F912095BFF12C5
:050D5E000D9480E2226B
:040BDA008E358F368F
:100BDE00E4FBE536453570057F30020D94C3E535EF
:100BEE006480948050107F2D120D94C3E49536F5D9
:100BFE0036E49535F535E53645356029AE35AF36F3
:100C0E007C007D0A120974ED2430FFAE030B74379D
:100C1E002EF8A607AE35AF367C007D0A1209748E0B
:100C2E00358F3680D11BEB3395E0C36480948040C2
:0D0C3E000C74372BF8E6FF120D941B80E9B3
:010C4B002286
:0E0D7C00120D637BFF7A0C794C120D3E80FE47
:03002300020800D0
:10080000C0E0C0F0C083C082C0D075D000C000C0BE
:0D08100001C002C003C004C005C006C0073F
:10081D007F01120D8A2098030209408599217522C6
:10082D0000C3E5229403748094804003020940E5DF
:10083D002275F00FA4248EF582E4340CF583120991
:10084D00E4AF21E4FCFDFEC31209AA6003020932E4
:10085D007F80120D8A20002C7BFF7A0C7954120DAB
:10086D003EE52275F00FA4248EF582E4340CF58359
:10087D001209C7AB1C051CEB25E025E02408F81276
:10088D0009F4806B7BFF7A0C795E120D3E752200A8
:10089D00C3E5229405748094805054E52225E0250B
:1008AD00E02408F81209D7AF21E4FCFDFEC31209BC
:1008BD00AA7072852223E523C3951C501CE52325C0
:1008CD00E025E0240CF81209BBE52325E025E02402
:1008DD0008F81209F4052380DDE52325E025E02441
:1008ED0008F8120A0000000000151C052280A17FE7
:1008FD00C0120D8AE52275F00FA42492F9740C35FF
:10090D00F0FA7BFF120D3E7FCD120D8AE52275F0B8
:10091D000FA4249CF582E4340CF583E493FF7E0050
:10092D00120BDA80097BFF7A0C796A120D3E0522D3
:03093D0002082E7F
:10094000D007D006D005D004D003D002D001D0000B
:0B095000D0D0D082D083D0F0D0E032B5
:03000300020CBB31
:100CBB00C0E0C083C082C0D075D000C001C002C0EC
:100CCB0003C005C006C007B2007F8030000B120DB9
:100CDB008A7BFF7A0C795E8009120D8A7BFF7A0C76
:100CEB007954120D3ED007D006D005D003D002D0D8
:0A0CFB0001D0D0D082D083D0E032C7
:03001300020A6E70
:100A6E00C0E0C0F0C083C082C0D075D000C000C04E
:0D0A7E0001C002C003C004C005C006C007CF
:100A8B00753300753400C3E534940574809480503D
:100A9B0068E53425E025E02408F81209BBE4FBFAED
:100AAB00F9F8C31209AA6051751C00C3E51C940325
:100ABB0074809480503FE51C75F00FA4248EF58252
:100ACB00E4340CF5831209C7E53425E025E024084E
:100ADB00F81209D7C31209AA7017E51C75F00FA4F9
:100AEB00249CF582E4340CF583E4932533F53380B1
:100AFB0004051C80B60534808D7F01120D8A7BFFA7
:100B0B007A0C7972120D3EE53424FFFFE434FFFEBC
:100B1B00120BDA7FC0120D8A7BFF7A0C7981120DD2
:080B2B003EAF337E00120BDA2D
:100B3300D007D006D005D004D003D002D001D00016
:0B0B4300D0D0D082D083D0F0D0E032C0
:03000000020B4EA2
:0C0B4E00787FE4F6D8FD758143020B951A
:10095B00BB010689828A83E0225002E722BBFE029A
:09096B00E32289828A83E49322CD
:10097400C2D5EC30E709B2D5E4C39DFDE49CFCEE9E
:1009840030E715B2D5E4C39FFFE49EFE120A19C3F3
:10099400E49DFDE49CFC8003120A1930D507C3E4EE
:0609A4009FFFE49EFE220D
:1009AA00EB9FF5F0EA9E42F0E99D42F0E89C45F0A3
:0109BA00221A
:0C09BB00E6FC08E6FD08E6FE08E6FF2268
:1009C700E493FC740193FD740293FE740393FF2276
:0D09D700E6FB08E6F908E6FA08E6CBF82290
:1009E400E493F8740193F9740293FA740393FB2269
:0C09F400ECF608EDF608EEF608EFF6222F
:100A0000D083D082E493F608740193F608740293BD
:090A1000F608740393F6740473F4
:100B5A00020D7CE493A3F8E493A34003F68001F228
:100B6A0008DFF48029E493A3F85407240CC8C3339C
:100B7A00C4540F4420C8834004F456800146F6DF6B
:100B8A00E4800B0102040810204080900D9EE47E50
:100B9A00019360BCA3FF543F30E509541FFEE49360
:100BAA00A360010ECF54C025E060A840B8E493A327
:100BBA00FAE493A3F8E493A3C8C582C8CAC583CA52
:100BCA00F0A3C8C582C8CAC583CADFE9DEE780BE0A
:010DA300004F
:100A1900BC000BBE0029EF8DF084FFADF022E4CCC1
:100A2900F875F008EF2FFFEE33FEEC33FCEE9DEC8A
:100A3900984005FCEE9DFE0FD5F0E9E4CEFD22EDD0
:100A4900F8F5F0EE8420D21CFEADF075F008EF2F1A
:100A5900FFED33FD4007985006D5F0F222C398FD0B
:050A69000FD5F0EA22A8
:00000001FF
