:100B760057656C636F6D6500496E76616C696400DC
:100B8600454E5452592E2E2E00455849542E2E2E7F
:100B9600000100BC61470200BC61480300BC61491A
:0C0C57000124000125000426000000001C
:080B3D00C296D2977F027E00F0
:100B4500D3EF9400EE6480948040257DFAEDD39434
:100B5500007480948040031D80F37DF7EDD39400ED
:100B65007480948040031D80F3EF1F70D31E80D0E6
:010B7500225D
:100C3E007F01120C647F02120C647F0C120C647F15
:090C4E0038120C647F80020C6472
:0A0C64008FA0C295120B3DC297222B
:0A0C6E008FA0D295120B3DC2972211
:100BF5008B1C8A1D891EAB1CAA1DA91E120800602C
:100C050013051EE51E7002051D14F9120800FF12DA
:050C15000C6E80E222DC
:040A28008E108F118C
:100A2C00E4FBE511451070057F30020C6EC3E51038
:100A3C006480948050107F2D120C6EC3E49511F5D8
:100A4C0011E49510F510E51145106029AE10AF11A9
:100A5C007C007D0A120819ED2430FFAE030B7412D2
:100A6C002EF8A607AE10AF117C007D0A1208198E65
:100A7C00108F1180D11BEB3395E0C36480948040C0
:0D0A8C000C74122BF8E6FF120C6E1B80E9B3
:010A9900223A
:100C1A00120C3E7BFF7A0B7976120BF5759850759C
:100C2A008920758BFD758DFDD28ED2ACD288D2A863
:040C3A00D2AF80FEB7
:030023000209A02F
:1009A000C0E0C0F0C083C082C0D075D000C000C01D
:1009B00001C002C003C004C005C006C00730984D86
:1009C000C298E47F0AFEFDFCAB29AA28A927A82625
:1009D00012084FA804A905AA06AB07AF99EF24D0C7
:1009E000FFE434FFFE3395E0FDFCEB2FF529EA3EF2
:1009F000F528E93DF527E83CF5260524E5246408BB
:100A0000700BAF29AE28AD27AC26120A9AD007D0BA
:100A100006D005D004D003D002D001D000D0D0D071
:080A200082D083D0F0D0E03257
:080A9A008F0B8E0A8D098C08F8
:100AA200E4F529F528F527F526F524F50CC3E50C20
:100AB2009403748094805039E50C75F005A4249851
:100AC200F582E4340BF5831208AFAB0BAA0AA9092D
:100AD200A808C312089E7015E50C75F005A42497AA
:100AE200F582E4340BF583E493FF020BA6050C8038
:0F0AF200BC7F01120C647BFF7A0B797E120BF52F
:010B010022D1
:020BA6008F0DB1
:100BA800E525601DE4F50EE50EC395255013741F69
:100BB800250EF8E6B50D06AD0EFF020B02050E80F8
:060BC800E6AF0D120BCF99
:010BCE002204
:100BCF00AC077F01120C647BFF7A0B7986120BF551
:100BDF007FC0120C64AF250525741F2FF8A604AF34
:060BEF00047E00020A284A
:100B02008F0FAC057F01120C647BFF7A0B798F1279
:100B12000BF57FC0120C64ECC39404748094805073
:100B22000F74202CF8E6FF741F2CF8A6070C80E740
:0B0B3200E4F5231525AF0FFE020A2892
:03000000020914DE
:0C091400787FE4F6D8FD75812902095BAC
:10080000BB010689828A83E0225002E722BBFE02F6
:09081000E32289828A83E4932229
:10081900C2D5EC30E709B2D5E4C39DFDE49CFCEEFA
:1008290030E715B2D5E4C39FFFE49EFE1208BFC3AB
:10083900E49DFDE49CFC80031208BF30D507C3E4A6
:060849009FFFE49EFE2269
:10084F00E88FF0A4CC8BF0A42CFCE98EF0A42CFC48
:10085F008AF0EDA42CFCEA8EF0A4CDA8F08BF0A4C6
:10086F002DCC3825F0FDE98FF0A42CCD35F0FCEB25
:10087F008EF0A4FEA9F0EB8FF0A4CFC5F02ECD39EA
:0F088F00FEE43CFCEAA42DCE35F0FDE43CFC2257
:10089E00EB9FF5F0EA9E42F0E99D42F0E89C45F0B0
:0108AE002227
:1008AF00E493FC740193FD740293FE740393FF228F
:10092000020C1AE493A3F8E493A34003F68001F2C7
:1009300008DFF48029E493A3F85407240CC8C333D8
:10094000C4540F4420C8834004F456800146F6DFA7
:10095000E4800B0102040810204080900C57E47ED4
:10096000019360BCA3FF543F30E509541FFEE4939C
:10097000A360010ECF54C025E060A840B8E493A363
:10098000FAE493A3F8E493A3C8C582C8CAC583CA8E
:10099000F0A3C8C582C8CAC583CADFE9DEE780BE46
:010C63000090
:1008BF00BC000BBE0029EF8DF084FFADF022E4CC1D
:1008CF00F875F008EF2FFFEE33FEEC33FCEE9DECE6
:1008DF00984005FCEE9DFE0FD5F0E9E4CEFD22ED2C
:1008EF00F8F5F0EE8420D21CFEADF075F008EF2F76
:1008FF00FFED33FD4007985006D5F0F222C398FD67
:05090F000FD5F0EA2203
:00000001FF
