:100BF90057656C636F6D6500425559494E472E2EF6
:100C09002E0052454A454354494E472E2E2E004E3A
:100C19004F542054414B454E004E4F2050524F44A3
:100C290055435400544F54414C20414D4F554E5457
:100C39002E2E2E00205253000100BC614741505016
:100C49004C4520000A0200BC61484D414E474F20E7
:0F0C590000140300BC61494F52414E4745001E35
:0F0DC20004340000000001310001320001330051
:080D0300C296D2977F027E0028
:100D0B00D3EF9400EE6480948040257DFAEDD3946C
:100D1B00007480948040031D80F37DF7EDD3940025
:100D2B007480948040031D80F3EF1F70D31E80D01E
:010D3B002295
:100DA9007F01120DD27F02120DD27F0C120DD27F5C
:090DB90038120DD27F80020DD228
:0A0DD2008FA0C295120D03C29722F4
:0A0DDC008FA0D295120D03C29722DA
:100D64008B298A2A892BAB29AA2AA92B120800606D
:100D740013052BE52B7002052A14F9120800FF1243
:050D84000DDC80E222FD
:040B87008E1D8F1E12
:100B8B00E4FBE51E451D70057F30020DDCC3E51D42
:100B9B006480948050107F2D120DDCC3E4951EF5FC
:100BAB001EE4951DF51DE51E451D6029AE1DAF1EEE
:100BBB007C007D0A120819ED2430FFAE030B741F65
:100BCB002EF8A607AE1DAF1E7C007D0A1208198EEB
:100BDB001D8F1E80D11BEB3395E0C3648094804046
:0D0BEB000C741F2BF8E6FF120DDC1B80E9D7
:010BF80022DA
:100D3C00120DA97BFF7A0B79F9120D647598507519
:100D4C008920758BFD758DFDD28ED2ACD28AD2885E
:080D5C00D2AAD2A8D2AF80FE9A
:03002300020A6E60
:100A6E00C0E0C0F0C083C082C0D075D000C000C04E
:100A7E0001C002C003C004C005C006C00730990201
:100A8E00C29930984DC298E47F0AFEFDFCAB37AA9E
:100A9E0036A935A83412084FA804A905AA06AB0733
:100AAE00AF99EF24D0FFE434FFFE3395E0FDFCEB6D
:100ABE002FF537EA3EF536E93DF535E83CF53405D8
:100ACE0031E5316408700BAF37AE36AD35AC34124C
:100ADE000914D007D006D005D004D003D002D0011F
:0D0AEE00D000D0D0D082D083D0F0D0E03244
:100D8900AC077F01120DD27BFF7A0C7901120D6439
:100D99007FC0120DD2AF320532742C2FF8A604226F
:020C68008F0DEE
:100C6A007F01120DD27BFF7A0C790B120D647FC0C3
:100C7A00120DD2E4FFEFC39532502D742C2FF8E6F3
:100C8A00650D7021AE07EEC3940474809480500FF2
:100C9A00742D2EF8E6FD742C2EF8A6050E80E7E4D6
:100CAA00F5301532220F80CD7BFF7A0C7918120DA0
:010CBA0064D5
:010CBB002216
:080914008F0B8E0A8D098C087F
:10091C00E4F537F536F535F534F531F50CC3E50C62
:10092C0094037480948040030209BDE50C75F00DAE
:10093C00A42442F582E4340CF5831208AFAB0BAA65
:10094C000AA909A808C312089E7061E5337017E55F
:10095C000C75F00DA42441F582E4340CF583E4937A
:10096C00FF120D898015E50C75F00DA42441F5825C
:10097C00E4340CF583E493FF120C68E50C75F00D70
:10098C00A42446F9740C35F0FA7BFF120D647FCD6C
:10099C00120DD2E50C75F00DA4244DF582E4340C47
:1009AC00F583E493FF3395E0FE020B87050C0209F7
:0A09BC00297BFF7A0C7922120D64EA
:0109C600220E
:03000300020CBC30
:100CBC00C0E0C083C082C0D075D000C001C002C0EB
:100CCC0003C005C006C0076333FF7F01120DD2E5D8
:100CDC00337BFF70067A0C790180047A0C790B1245
:100CEC000D64D007D006D005D003D002D001D0D0EF
:070CFC00D082D083D0E0326A
:030013000209C718
:1009C700C0E0C0F0C083C082C0D075D000C000C0F6
:0D09D70001C002C003C004C005C006C00777
:1009E400751C00E4FFEFC395325041E4FEEEC3945E
:1009F40003748094805032EE75F00DA42441F58286
:100A0400E4340CF583E493FD742C2FF8E6B5051655
:100A1400EE75F00DA4244DF582E4340CF583E493D3
:100A2400251CF51C80030E80C40F80B97F01120DB4
:100A3400D27BFF7A0C792D120D647FC0120DD2AFD8
:0F0A44001C7E00120B877BFF7A0C793D120D642C
:100A5300D007D006D005D004D003D002D001D000F7
:0B0A6300D0D0D082D083D0F0D0E032A1
:03000000020AFBF6
:0C0AFB00787FE4F6D8FD758137020B42CD
:10080000BB010689828A83E0225002E722BBFE02F6
:09081000E32289828A83E4932229
:10081900C2D5EC30E709B2D5E4C39DFDE49CFCEEFA
:1008290030E715B2D5E4C39FFFE49EFE1208BFC3AB
:10083900E49DFDE49CFC80031208BF30D507C3E4A6
:060849009FFFE49EFE2269
:10084F00E88FF0A4CC8BF0A42CFCE98EF0A42CFC48
:10085F008AF0EDA42CFCEA8EF0A4CDA8F08BF0A4C6
:10086F002DCC3825F0FDE98FF0A42CCD35F0FCEB25
:10087F008EF0A4FEA9F0EB8FF0A4CFC5F02ECD39EA
:0F088F00FEE43CFCEAA42DCE35F0FDE43CFC2257
:10089E00EB9FF5F0EA9E42F0E99D42F0E89C45F0B0
:0108AE002227
:1008AF00E493FC740193FD740293FE740393FF228F
:100B0700020D3CE493A3F8E493A34003F68001F2BB
:100B170008DFF48029E493A3F85407240CC8C333EF
:100B2700C4540F4420C8834004F456800146F6DFBE
:100B3700E4800B0102040810204080900DC2E47E7F
:100B4700019360BCA3FF543F30E509541FFEE493B3
:100B5700A360010ECF54C025E060A840B8E493A37A
:100B6700FAE493A3F8E493A3C8C582C8CAC583CAA5
:100B7700F0A3C8C582C8CAC583CADFE9DEE780BE5D
:010DD1000021
:1008BF00BC000BBE0029EF8DF084FFADF022E4CC1D
:1008CF00F875F008EF2FFFEE33FEEC33FCEE9DECE6
:1008DF00984005FCEE9DFE0FD5F0E9E4CEFD22ED2C
:1008EF00F8F5F0EE8420D21CFEADF075F008EF2F76
:1008FF00FFED33FD4007985006D5F0F222C398FD67
:05090F000FD5F0EA2203
:00000001FF
